:020000040800F2
:10000000E81000201D1E0008F5020008F702000895
:10001000FB020008FF0200080303000800000000C4
:1000200000000000000000000000000007030008BE
:1000300009030008000000000B0300080D0300087E
:10004000371E0008371E0008371E0008371E00083C
:10005000371E0008371E0008371E0008371E00082C
:10006000371E0008371E0008371E0008371E00081C
:10007000371E0008371E0008371E0008371E00080C
:10008000371E0008371E0008371E0008371E0008FC
:10009000371E0008371E0008371E0008371E0008EC
:1000A000371E0008371E0008371E0008371E0008DC
:1000B000371E0008371E0008371E0008371E0008CC
:1000C000371E0008371E0008371E0008371E0008BC
:1000D000371E00086B1D000817120008371E0008A5
:1000E000371E0008371E0008371E0008371E00089C
:1000F000371E0008371E0008371E0008371E00088C
:10010000371E0008371E0008371E0008371E00087B
:10011000371E0008371E0008371E0008371E00086B
:10012000371E0008371E0008371E0008371E00085B
:1001300000F002F800F06EF80AA090E8000C82448B
:100140008344AAF10107DA4501D100F063F8AFF268
:10015000090EBAE80F0013F0010F18BFFB1A43F0A5
:1001600001031847645900008459000010F8013B4E
:100170000A4413F0030408BF10F8014B1D1108BF17
:1001800010F8015B641E05D010F8016B641E01F8C5
:10019000016BF9D1002D15D010F8014B03F00C03C1
:1001A0000C2BA1EB04040ABF10F8013BA4EB831451
:1001B000A4EB032405F1010314F8016B5B1E01F8A5
:1001C000016BF9D5914238BF10F8013BD1D370478C
:1001D0000023002400250026103A28BF78C1FBD850
:1001E000520728BF30C148BF0B607047662904F032
:1001F000DE82642902F06E84002070471FB502F091
:10020000C7FF04000020002103F004FDE0601FBDD3
:1002100010B510BD03F0BCF81146FFF7EFFF00F07A
:1002200009F803F0DAF803B4FFF7F2FF03BC01F0BA
:1002300041FD000008B501F0CDFC01F035FD00F0F6
:10024000B5F900F01FFD4FF6FF7000F092FA4FF67F
:10025000FF70264908604FF40041254801F07BFFFC
:1002600001F09CFA4FF4165000F086FF4FF4165040
:1002700001F02FFD39E04FF400411D4801F06BFF04
:100280004FF47A7001F0E3FC4FF40041184801F09C
:1002900060FF4FF4784020230522002100902D209C
:1002A00000F07DFA4FF478402023062200210090D0
:1002B000502000F074FA4FF47840202307220021E8
:1002C0000090732000F06BFA4FF478402023032253
:1002D000002100909B2000F062FA002310226E2182
:1002E0004B2000F003FF01F002FBC4E7F4080020FC
:1002F00000080140704700BFFEE700BFFEE700BFF7
:10030000FEE700BFFEE77047704770477047000088
:100310000CB50020019000906C48006840F48030DB
:100320006A49086000BF6948006800F40030009026
:100330000198401C0190009818B90198B0F5A06F81
:10034000F1D16248006800F4003010B10120009043
:1003500001E0002000900098012843D15C4800682B
:1003600040F010005A4908600846006820F0030079
:1003700008600846006840F0020008605348406882
:10038000524948600846406848600846406840F462
:10039000806048600846406820F47C104860084649
:1003A000406840F4E81048600846006840F08070FB
:1003B000086000BF4548006800F000700028F9D0D0
:1003C0004248406820F003004049486008464068C1
:1003D00040F00200486000BF3C48406800F00C005C
:1003E0000828F9D10CBD10B5FFF792FF10BD10B56C
:1003F0003648006840F0010034490860084640680B
:10040000344908403149486008460068324908408C
:100410002E4908600846006820F4802008600846DD
:10042000406820F4FE0048604FF41F008860FFF72A
:10043000DAFF4FF000602949086010BD10B50021B7
:1004400000200022214B5B6803F00C0121B104293C
:1004500006D0082928D107E0214B224C236027E051
:100460001F4B204C236023E0184B5B6803F4701093
:10047000164B5B6803F48032022303EB904022B9F1
:10048000194B4343174C23600DE0104B5B6803F49A
:10049000003323B1144B4343124C236003E0104B51
:1004A0004343104C236003E00D4B0E4C236000BF10
:1004B00000BF064B5B68C3F303130C4CE15C094BB4
:1004C0001B68CB40074C236010BD000000100240A9
:1004D000002002400000FFF8FFFFF6FE08ED00E0FC
:1004E00000127A000000002000093D0004000020F6
:1004F00070B50446002517E00121F94801F02BFEF4
:1005000004F0800020B10221F54801F022FE03E052
:100510000221F34801F01FFE0121F14801F019FE0C
:100520006006040E681CC5B2082DE5DB70BD10B571
:1005300004464021EA4801F00CFE2046FFF7D8FFB0
:1005400010BD10B504464021E54801F002FEC4F399
:100550000720FFF7CDFFE0B2FFF7CAFF10BD10B5CF
:1005600004464021DE4801F0F6FD2046FFF7C0FFBB
:1005700010BD2DE9F04107460C4615461E462A20BF
:10058000FFF7EDFF3846FFF7DCFF2846FFF7D9FFFE
:100590002B20FFF7E4FF2046FFF7D3FF3046FFF79D
:1005A000D0FF2C20FFF7DBFFBDE8F08108B501216B
:1005B000052001F0DDFF0121CA4801F0EEFD48F2FF
:1005C0007300ADF8000010208DF8030003208DF8B3
:1005D00002006946C24801F00FFD48F23F01C048E1
:1005E00001F0B7FD1021BE4801F0B5FD142001F067
:1005F0002EFB1021BA4801F0ACFD142001F027FBBE
:100600002021B74801F0A5FD3620FFF7A8FF002004
:10061000FFF78DFF3A20FFF7A2FF0520FFF787FFC6
:10062000B220FFF79CFF0C20FFF781FF0C20FFF7A3
:100630007EFF0020FFF77BFF3320FFF778FF33209A
:10064000FFF775FFB720FFF78AFF3520FFF76FFF31
:10065000BB20FFF784FF1920FFF769FFC020FFF7D9
:100660007EFF2C20FFF763FFC220FFF778FF0120F9
:10067000FFF75DFFC320FFF772FF1220FFF757FF60
:10068000C420FFF76CFF2020FFF751FFC620FFF7C3
:1006900066FF0F20FFF74BFFD020FFF760FFA4207D
:1006A000FFF745FFA120FFF742FFE020FFF757FFCC
:1006B000D020FFF73CFF0420FFF739FF0D20FFF7A4
:1006C00036FF1120FFF733FF1320FFF730FF2B20F9
:1006D000FFF72DFF3F20FFF72AFF5420FFF727FFEA
:1006E0004C20FFF724FF1820FFF721FF0D20FFF714
:1006F0001EFF0B20FFF71BFF1F20FFF718FF232013
:10070000FFF715FFE120FFF72AFFD020FFF70FFFCB
:100710000420FFF70CFF0C20FFF709FF1120FFF763
:1007200006FF1320FFF703FF2C20FFF700FF3F20F9
:10073000FFF7FDFE4420FFF7FAFE5120FFF7F7FE1A
:100740002F20FFF7F4FE1F20FFF7F1FE1F20FFF719
:10075000EEFE2020FFF7EBFE2320FFF7E8FE21202E
:10076000FFF7FDFE1120FFF7FAFE2920FFF7F7FE45
:1007700008BD70B50646EF231A4600210846FFF76C
:10078000F8FE002408E0002503E03046FFF7D9FE1C
:100790006D1CF02DF9D3641CF02CF4D370BD2DE941
:1007A000F05F81468A4693461C46102C00D14E4D80
:1007B000202C00D14D4D0AEB0400431E09EB040030
:1007C000421E51464846FFF7D4FE04FB04F0C11711
:1007D00000EB5171C1F3C7080BFB0855002715E06A
:1007E00000260EE028780121B140084018B10A988F
:1007F000FFF7A7FE03E03E480068FFF7A2FE701C6B
:10080000C6B2082EEEDB6D1C781CC7B24745E7DB8D
:10081000BDE8F09F70B504460D4616462B462246AD
:1008200029462046FFF7A5FE3046FFF78AFE70BD39
:100830002DE9F04704460D4616461F46DDF820A078
:100840003B46324629462046FFF793FEA8460AE07B
:10085000A14604E05046FFF774FE09F10109B145D5
:10086000F8D908F10108B845F2D9BDE8F087F8B524
:1008700004460D461646691E601E6B1C621C0096DF
:10088000FFF7D6FFF8BD2DE9FF4F85B081468A46B8
:100890000020039083460798A0EB09040898A0EB7A
:1008A0000A06CDF80890CDF804A0002C01DD012740
:1008B00005E00CB9002702E04FF0FF376442002E3C
:1008C00002DD4FF0010806E016B94FF0000802E023
:1008D0004FF0FF386642B4420CDD25460BE00000C5
:1008E000000801400002300094060020140000209F
:1008F000F40800203546002004901BE0129ADDE940
:100900000110FFF787FF039820440390B344039836
:10091000A84205DD0398401B0390029838440290DA
:10092000AB4504DDABEB050B019840440190049806
:10093000401C0490691C04988842DFD309B0BDE8CC
:10094000F08F2DE9F84305460E4617469846089C59
:1009500033463A46314628460094FFF794FF434613
:100960002A46314628460094FFF78DFF43463A4613
:10097000414628460094FFF786FF43463A463146F3
:1009800038460094FFF77FFFBDE8F8832DE9F04774
:1009900006460F46904699460025444631E0791BAD
:1009A000301B4A46FFF736FF791B30194A46FFF7DE
:1009B00031FF3919701B4A46FFF72CFF391B701B9A
:1009C0004A46FFF727FF791930194A46FFF722FFF9
:1009D000391B70194A46FFF71DFF391970194A462D
:1009E000FFF718FF7919301B4A46FFF713FF6D1CFC
:1009F00005FB05F004FB040108FB08F0814200DD63
:100A0000641EA542CBDDBDE8F0872DE9F84F054611
:100A10000F4616469A46DDF828B00095E02D01D81D
:100A2000E02F01D9BDE8F88FA6F12000C6B207F18A
:100A30000F03EA1D39462846FFF79BFDBAF1000F68
:100A400025D1002420E004EB06108A4911F800901B
:100A50004FF0000811E009F0010018B15846FFF707
:100A600070FD03E084480068FFF76BFD4FEA6909F9
:100A70006D1C08F1010000F0FF08B8F1080FEADB77
:100A8000009D7F1C601CC4B2102CDCDB1FE0002426
:100A90001BE004EB0610774911F800904FF00008B6
:100AA0000EE009F0010028B1391905EB08005A469B
:100AB000FFF7B0FE4FEA690908F1010000F0FF08F6
:100AC000B8F1080FEDDB601CC4B2102CE1DB00BFF5
:100AD000A8E7F8B505460E4614461F4615E0E02D7A
:100AE00001D900251036E02E06D90020054606461D
:100AF0004FF47840FFF73DFE0097227800233146FF
:100B00002846FFF782FF0835641C20780028E6D1CC
:100B1000F8BD10B50246012000E050430B00A1F1E2
:100B20000104E1B2F9D110BD2DE9F84F06468A461D
:100B300090461D46DDF828904FF0000B00242FE072
:100B4000281B401EC1B20A20FFF7E3FFB8FBF0F0FC
:100B50000A21B0FBF1F201FB1207BBF1000F10D12B
:100B6000681EA0420DDD57B9082101FB0460002377
:100B700020225146CDF80090FFF747FF0EE04FF0DE
:100B8000010B07F13001CAB2082101FB0460002308
:100B90005146CDF80090FFF738FF00BF601CC4B28B
:100BA000AC42CDDBBDE8F88F2DE9FC5F06468A46F6
:100BB00017461C46DDF83080002001902F4938464A
:100BC00003F0F8FC009003F08DFC834600252CE038
:100BD000601B401EC1B20A20FFF79BFFBBFBF0F079
:100BE0000A21B0FBF1F201FB1209A01EA8420ED1AE
:100BF000A11E082202FB016000232E225146CDF8DF
:100C00000080FFF702FF681CC5B2601CC4B209F186
:100C10003001CAB2082101FB056000235146CDF81E
:100C20000080FFF7F2FE681CC5B2A542D0DBBDE82C
:100C3000FC9F2DE9F04105460E461746984643466F
:100C40003A4631462846FFF794FC00240CE0012187
:100C500001EB44010A4A505CFFF769FC084911F8AE
:100C60001400FFF764FC641CB4F5C86FEFDBBDE84B
:100C7000F0810000B2470008F40800200000C842DC
:100C8000A24D000808B50121082001F071FCC02028
:100C9000ADF8000010208DF8030003208DF802004D
:100CA0006946FC4801F0A8F9C021FA4801F051FA60
:100CB0000120F9490860F949C1F89C0108BD10B547
:100CC000F448006820F07040F24908600846006867
:100CD00040F0405008600120EF49091D0860EF49CD
:100CE000C1F89801042000F08EFF0020EA49091D98
:100CF0000860042000F087FF0020E849C1F898014F
:100D000010BD10B5E348006820F07040E14908606C
:100D10000846006840F0405008600020DE49086046
:100D2000DE49C1F89C01042000F06DFF0120DA4982
:100D30000860DA49C1F89C01042000F064FF10BD8E
:100D400010B50024D348006820F07040D1490860F5
:100D50000846006840F0004008600120CE49091DA7
:100D6000086000F050FF0120CC49C1F8980100F064
:100D70004AFF07E0601CC4B2FA2C03DDFFF7C1FF95
:100D8000012010BDC4487C3800680028F2D1C24957
:100D9000086000BFF5E710B50020BF490860BD48F6
:100DA000006820F07040BB4908600846006840F0C9
:100DB000405008600020B949C1F89C01022000F0B1
:100DC00022FF0120B4490860022000F01CFF00202F
:100DD000B249C1F8980110BD10B50020AE490860B5
:100DE000AC48006820F07040AA49086008460068D6
:100DF00040F0405008600120A849C1F89C01022041
:100E000000F001FF0120A4490860022000F0FBFE71
:100E10000020A249C1F8980110BD70B504469D4854
:100E2000006820F070409B4908600846006840F068
:100E300040500860002098490860002517E0E0094C
:100E40009549091D08606006040E022000F0DBFED3
:100E500001209249C1F89801022000F0D4FE002040
:100E60008D490860022000F0CEFE681CC5B2082D36
:100E7000E5DB70BD70B5054600248648006820F0AB
:100E80007040844908600846006840F000400860EF
:100E9000002616E0002080490860022000F0B3FE22
:100EA00001207E49C1F898016006040E7A487C381A
:100EB000006808B1601CC4B2012000F0A4FE701CE0
:100EC000C6B2082EE6DB15B9FFF786FF01E0FFF793
:100ED00062FF204670BD70B506460C46FFF7EFFE78
:100EE0008020FFF79AFF4FF4167502E0012000F012
:100EF0008AFE2800A5F10105F8D1FFF7E0FE812068
:100F0000FFF78BFF0120FFF7B5FF2070FFF743FFCE
:100F10000120FFF7AFFF6070FFF75EFFFFF7F1FE04
:100F200070BD2DE9F04F8BB004464FF00009CA4662
:100F3000FFF7C5FE002141EA4401C8B2FFF76DFF8B
:100F4000FFF7FEFE09902C20FFF767FFFFF7F8FE82
:100F50000620FFF762FFFFF7F3FEFFF7D2FE322015
:100F600000F075FEFFF7ABFE012101EB4401C8B2B2
:100F7000FFF753FFFFF7E4FEF8B90120FFF77AFF10
:100F8000ADF818000120FFF775FFADF81A00012039
:100F9000FFF770FFADF81C000120FFF76BFFADF805
:100FA0001E000120FFF766FFADF820000020FFF7CC
:100FB00061FFADF82200FFF7A4FEBDF81A00BDF8EE
:100FC000181040EA012085B2BDF82000BDF81E10BF
:100FD00040EA012086B2284603F0A4FA834603F0D3
:100FE00049FA00222E4BCDE9000103F05BF8002204
:100FF0002C4BCDE9020102F0FDFE00222A4BCDE987
:10100000040103F04DF9074602F01AFE814630460E
:1010100003F088FA834603F02DFA0022234BCDE932
:10102000020103F03FF800221E4BCDE9040102F05B
:10103000E1FE074602F004FE82461D49484603F0E1
:1010400085FB41D81B49484603F080FA3CD8002173
:10105000504603F07BFB37D81749504603F076FA29
:1010600032D816480021016041608160C160C0F83B
:101070000090C0F808A0504603F0FCF907468846E7
:10108000484603F0F7F902460B46CDE90078CDE972
:10109000040115E0000C01409881214200802142AA
:1010A00000E06540E0FFEF4000804640000059400E
:1010B0000000A0C10000FA420000C8422C09002034
:1010C00004A1094801F0CAFC002600250BB0BDE8C8
:1010D000F08F000025362E32662A43202020253648
:1010E0002E326625250000003C090020F8B5054693
:1010F0000F4616461C464420FFF713FF33460B22CB
:1011000029460A200094FFF74AFB33460C22294661
:101110002D200094FFF743FB164800940423294632
:1011200002685020FFF740FD3346432229469620AF
:101130000094FFF76AFC33460D2239460A200094DA
:10114000FFF72DFB33460C2239462D200094FFF784
:1011500026FB084800940423394682685020FFF794
:1011600023FD33462522394696200094FFF74DFC97
:10117000F8BD00002C09002010B586B004460121FE
:10118000052001F0F5F90121274801F0FEF90420BE
:10119000ADF8140003208DF8160018208DF8170004
:1011A00005A9224800F028FF0820ADF8140004200B
:1011B0008DF8170005A91D4800F01EFF26208DF8A8
:1011C000000003208DF801008DF8020001208DF849
:1011D0000300684600F047FE01940020ADF80800C7
:1011E000ADF80A00ADF80C00ADF810000C20ADF819
:1011F0000E0001A90E4801F062FA012240F22551C9
:101200000B4801F0F4FA0121094801F0E4FA00F07A
:10121000A0F806B010BD10B5054801F04DFBC4B2F2
:10122000204600F00DFA10BD010002000008014048
:10123000004400400246302A05DB392A03DCA2F1D3
:101240003003DAB20EE0412A05DB462A03DCA2F1C4
:101250003703DAB206E0612A04DB662A02DCA2F177
:101260005703DAB202F00F000001302905DB3929FB
:1012700003DCA1F13003D9B20EE0412905DB462998
:1012800003DCA1F15703D9B206E0612904DB66292A
:1012900002DCA1F15703D9B201F00F0318437047E4
:1012A0000146002209B900207047002200E0521CCC
:1012B00011F8013B002BFAD11046F5E730B5034693
:1012C0000C4619460BB9002030BD01E001F8014B76
:1012D0001000A2F10105AAB2F8D11846F4E7F0B562
:1012E00005460E4613462A46344605B10EB900207F
:1012F000F0BDA24202D9E018904208D2002103E0DA
:10130000605C5054481C81B29942F9DB07E01946F1
:1013100003E0481E275C175481B20029F9DC2846F7
:10132000E6E7020E0A70020C4A70020A8A70C87060
:10133000704701460020087800024A7810430002F6
:101340008A7810430002CA7810437047FC4800783E
:10135000704710B50020FA4908700021042000F001
:1013600008FB10BDF748007870472DE9F0410646AC
:10137000884614460027F4480078012801D1BDE8CA
:10138000F0813146384600F0BDFA07460021384664
:1013900000F0B8FA07462546E01704EB1060C0F3EA
:1013A0000721384600F0AEFA0746E01704EB10605C
:1013B0000012A4EB0020C1B2384600F0A3FA0746A1
:1013C00022464146384600F0A3FA07463946072030
:1013D00000F0CFFA0120D2E770B504460D46002692
:1013E000D9480078012800D170BD2146304600F070
:1013F00089FA06460121304600F084FA06460021AB
:10140000304600F07FFA06460121304600F07AFAB5
:1014100006462DB90021304600F074FA064604E075
:101420000121304600F06EFA06463146072000F0F2
:10143000A0FA0120D8E770B505460C460026C24840
:101440000078012800D170BD2946304600F05AFAD4
:1014500006460221304600F055FA06460021304685
:1014600000F050FA06460421304600F04BFA0646DA
:10147000210E304600F046FA0646C4F307413046D6
:1014800000F040FA0646C4F30721304600F03AFA6D
:101490000646E1B2304600F035FA064631460720EE
:1014A00000F067FA0120CEE72DE9F04106468846B4
:1014B00014460027A4480078012801D1BDE8F08136
:1014C0003146384600F01EFA07460321384600F040
:1014D00019FA07462546E01704EB1060C0F3072110
:1014E000384600F00FFA0746E01704EB10600012D0
:1014F000A4EB0020C1B2384600F004FA07462246A9
:101500004146384600F004FA07463946072000F005
:1015100030FA0120D2E770B504460E4600258A480D
:101520000078012800D170BD2146284600F0EAF974
:1015300005460421284600F0E5F905460021284625
:1015400000F0E0F905460121284600F0DBF90546E8
:101550003146284600F0D6F905462946072000F016
:1015600008FA0120DFE770B505460C4600267648EC
:101570000078012800D170BD2946304600F0C2F93C
:1015800006460521304600F0BDF9064600213046EA
:1015900000F0B8F9064644F0FF00FF280AD1012107
:1015A000304600F0AFF90646E1B2304600F0AAF945
:1015B000064632E04FF6FF7020434FF6FF71884237
:1015C00010D10221304600F09DF90646C4F30721F0
:1015D000304600F097F90646E1B2304600F092F945
:1015E00006461AE00421304600F08CF90646210E2A
:1015F000304600F087F90646C4F30741304600F054
:1016000081F90646C4F30721304600F07BF906460F
:10161000E1B2304600F076F906463146072000F088
:10162000A8F90120A7E70246107870470246107813
:10163000704710B503460C461846FFF77AFE10BDFA
:1016400042490968424A1268914206D93F490968ED
:101650003F4A1268891A17291BD23C4909683C4A3B
:101660001268914205D23A490968384A1268891AC3
:101670000FD036490A6837498A4202D31739334AAC
:10168000116032490968087030490968491C2F4ABD
:101690001160704770B50024002509E000F064FA7D
:1016A0002D490A880988491C2B4B19802B498854DD
:1016B000294800881F2803D200F04CFA0028EDDCEE
:1016C00025480088072800DA70BD4FE02348005DF8
:1016D000552802D0601C84B248E02049601C085C98
:1016E000AA2802D0601C84B240E01C49A01C085CFF
:1016F00010B1A01C84B239E01849601D095C174A7A
:10170000201D105C01EB0020C01D85B2262D02D9E2
:10171000E01C84B22AE010480088001BA84200DACE
:1017200029E06A1E91B20D4A101900F014F96119EE
:10173000491E0A4A515C884212D0E01C84B215E06E
:10174000050900200709002004090020FC080020EA
:10175000000900207B090020F80800207B090020F8
:10176000204600F09BF9601984B200BF1048008841
:10177000001B0728AADA00BF0D480088001B0C498F
:10178000088008460088002806DD0A480119084834
:1017900002880848FFF7A3FD00BF95E70648074900
:1017A000086007490860FF2006490870704700007C
:1017B000F80800207B09002064090020FC080020B4
:1017C000000900200709002010B5044600BF402191
:1017D000494801F0DBF80028F9D02146464801F0DD
:1017E00067F810BD10B504462046FFF7EDFF10BDA9
:1017F00070B501210846FFF78EFE40490868404950
:1018000002F0D8FE054602F06DFE04462146072090
:10181000FFF711FE3949886802F064FE044621464C
:101820000820FFF708FE00210920FFF774FE3C2185
:101830000A20FFF770FE70BD2DE9F04106460F4605
:1018400039463046FFF7F2FE054625B1012D03D09B
:10185000022D03D101E002E001E000E000BF00BF83
:1018600029460920FFF757FE0446012C01D1BDE8A7
:10187000F0810020FBE72DE9F04106460F4639468E
:101880003046FFF7D3FE054625B1012D03D0022DCA
:1018900003D101E002E001E000E000BF00BF294603
:1018A0000A20FFF738FE0446012C01D1BDE8F08183
:1018B0000020FBE72DE9F04105460E461746092DAD
:1018C00002D00A2D0CD105E039463046FFF7B4FFAF
:1018D000044606E039463046FFF7CDFF044600E0F7
:1018E00000BF00BF2046BDE8F0810920704710B559
:1018F000FFF7D0FE10BD0000004400402C0900207E
:1019000000002041A44B1A181170431C98B2704774
:101910002DE9F04104460E4615469F4807192A4610
:1019200031463846FFF7DBFC601984B22046BDE83B
:10193000F08170B504460D4604B105B970BD03E0F1
:101940002078FFF74FFF641C2800A5F101018DB23C
:10195000F6D100BFF2E730B502460020002305E0D3
:1019600012F8015B2C18E0B25C1CA3B28B42F7DBCF
:1019700030BD70B505460C46002655208649891FA6
:101980000870AA204870002088700846C570201290
:1019900008714C71E01D84B2601E81B27E48801FC8
:1019A000FFF7D9FF0646601E7B49891F0E5421466A
:1019B0007948801FFFF7BDFF70BD10B50024774840
:1019C000007840B900212046FFF79CFFC4B20120F7
:1019D0007249087004E001212046FFF793FFC4B26A
:1019E00021460020FFF7C5FF10BD70B500246CA094
:1019F000FFF756FC85B22A4669A12046FFF788FF0B
:101A0000C4B26AA0FFF74CFC85B22A4667A1204603
:101A1000FFF77EFFC4B221460120FFF7AAFF70BD89
:101A200010B5002421460220FFF7A3FF10BD70B5BA
:101A30000546FFF75AFF0646002407E05D4810F808
:101A40001400A84200D103E0601CC4B2B442F5DB2C
:101A500000BF204670BD2DE9F0470446267894F873
:101A60000180A0784FF6FF7101EA0025E078284454
:101A700085B23046FFF7DBFF07464E4800EB4700D4
:101A80004078404502D00020BDE8F0872A46211D5D
:101A90003046FFF70FFF81464846F5E72DE9F0474E
:101AA00004464549E01C0E5C314644A000F0CAFFE4
:101AB000092E4BD2DFE806F005080B0E184A1C4A27
:101AC0004700FFF77AFF42E0FFF78FFF3FE0FFF7A5
:101AD000A7FF3CE03849A01D085C39490870002187
:101AE0000320FFF746FF32E00120364908702EE060
:101AF0003149201D085C4FF6FF7101EA00282E498C
:101B0000601D085C40441FFA80F8002518E0A01D05
:101B10002844801C2849085C4FF6FF7101EA002721
:101B2000A01D2844C01C2449085C384487B22144C5
:101B3000891D4819FFF78FFF8146381D284485B25B
:101B40004545E4DB03E0FFF753FE00E000BF00BFC4
:101B5000BDE8F0871C4800681C490968884201D02C
:101B6000012070470020FCE718490968164A1268EE
:101B700091420FD015490A6815498A4202D3173994
:101B8000124A116011490968087810490968491C0E
:101B90000E4A116070470000A009002008090020CB
:101BA0006A647A646C686B7A00000000312E302E13
:101BB00030000000225A00087B09002025640A003A
:101BC0000709002005090020FC080020000900206A
:101BD0007B09002010B56FF0040000F08EF92E484C
:101BE00000682E49B0FBF1F02D49087008460078D6
:101BF00000EB4001C1EBC0104FF6FF7101EAC000DD
:101C00002849088010BD0146254A12784A434FF002
:101C1000E0235A6100229A611A46126942F00102D9
:101C20001A6100BF4FF0E022106900F001021AB102
:101C300000F48032002AF5D04FF0E022126922F041
:101C400001024FF0E0231A6100229A6170470146B9
:101C5000144A12884A434FF0E0235A6100229A61E5
:101C60001A46126942F001021A6100BF4FF0E022E9
:101C7000106900F001021AB100F48032002AF5D098
:101C80004FF0E022126922F001024FF0E0231A61C6
:101C900000229A61704700000000002000127A00C4
:101CA0000A0900200C09002010B54FF4A06000F0D4
:101CB000D5F810BD014600BF704700BF534A1288D7
:101CC00002F04002002AF9D0C2B2504B1B1D1A800C
:101CD000704710B586B00446012144F2050000F0BB
:101CE00047FC4FF40070ADF8140003208DF8160087
:101CF00018208DF8170005A9454800F07DF94FF42C
:101D00008060ADF8140004208DF8170005A9404844
:101D100000F072F925208DF8000003208DF80100F5
:101D20008DF8020001208DF80300684600F09BF852
:101D300001940020ADF80800ADF80A00ADF80C00E1
:101D4000ADF810000C20ADF80E0001A92F4800F0EE
:101D5000B6FC012240F225512C4800F048FD01213B
:101D60002A4800F038FD06B010BD10B540F22551EC
:101D7000264800F021FE10B3244800F09DFDC4B2B7
:101D80002448008800F40040C8B92248008800F4C4
:101D9000804060B10A2C03D000201E49088020E05A
:101DA0001C48008840F400401A49088019E00D2CB6
:101DB00006D11848008840F480401649088010E099
:101DC00014480088C0F30D0013490C5411480088D2
:101DD000401C1049088008460088C72801DD002003
:101DE000088010BD10B504460BE000BF4021074835
:101DF00000F0CCFD0028F9D02178044800F058FD0F
:101E0000641C20780028F0D110BD0000003801408B
:101E10000008014014090020B90900200948804742
:101E200009480047FEE7FEE7FEE7FEE7FEE7FEE7BC
:101E3000FEE7FEE7FEE7FEE704480549054A064BD4
:101E400070470000EF03000831010008E80A002095
:101E5000E8100020E80C0020E80C00203149014384
:101E6000314A1160704770B5002100230F22C478F9
:101E700004B32D4C246804F4E064C4F5E064210A42
:101E8000C1F10403CA40447804FA03F18478144091
:101E900021430901254C0678A155047804F01F055B
:101EA0000124AC4005786D11AD0005F1E025C5F8C1
:101EB000004109E0047804F01F050124AC401C4DEA
:101EC0000678761145F8264070BD1A4A0A4002434A
:101ED000154B1B1F1A60704739B1134A121D126847
:101EE0000243114B1B1D1A6006E00F4A121D1268B7
:101EF00082430D4B1B1D1A607047042808D14FF018
:101F0000E021096941F004014FF0E022116107E08E
:101F10004FF0E021096921F004014FF0E022116146
:101F2000704700000000FA050CED00E000E400E05E
:101F300080E100E080FFFF1F10B50446CC488442DA
:101F400008D10121042000F02DFB0021042000F025
:101F500029FB46E0C748844208D10121082000F04F
:101F600021FB0021082000F01DFB3AE0C24884421A
:101F700008D10121102000F015FB0021102000F0F5
:101F800011FB2EE0BD48844208D10121202000F041
:101F900009FB0021202000F005FB22E0B848844224
:101FA00008D10121402000F0FDFA0021402000F07E
:101FB000F9FA16E0B348844208D10121802000F0EC
:101FC000F1FA0021802000F0EDFA0AE0AE488442E8
:101FD00007D10121801500F0E5FA0021A01500F0DD
:101FE000E1FA10BD10B50121084600F0DBFA00212E
:101FF000012000F0D7FA10BD2DE9F041024600257E
:102000000026002000230024002791F803C00CF0D4
:102010000F0591F803C00CF0100CBCF1000F03D0B9
:1020200091F802C04CEA050591F800C0BCF1000F20
:1020300031D0146800202BE04FF0010C0CFA00F3B3
:10204000B1F800C00CEA03069E4220D183004FF095
:102050000F0C0CFA03F7BC4305FA03FC4CEA04042A
:1020600091F803C0BCF1280F06D14FF0010C0CFA17
:1020700000FCC2F814C00AE091F803C0BCF1480F9C
:1020800005D14FF0010C0CFA00FCC2F810C0401C46
:102090000828D1D31460B1F800C0BCF1FF0F34DDC3
:1020A000546800202EE000F1080C4FF0010808FAF7
:1020B0000CF3B1F800C00CEA03069E4221D1830064
:1020C0004FF00F0C0CFA03F7BC4305FA03FC4CEA83
:1020D000040491F803C0BCF1280F05D100F1080CED
:1020E00008FA0CF8C2F8148091F803C0BCF1480F4C
:1020F00007D100F1080C4FF0010808FA0CF8C2F8FB
:102100001080401C0828CED35460BDE8F0814FF603
:10211000FF710180022181700421C1707047024665
:10212000002093680B400BB1012000E000207047B5
:102130000146886880B2704702460020D3680B4091
:102140000BB1012000E0002070470146C86880B252
:10215000704701617047416170470AB1016100E059
:1021600041617047C16070474FF480320A43826119
:102170008161826182698269704702460020434B17
:1021800018684FF68073184040EA021008433F4B2E
:10219000186070473E49C8617047F0B50A46002391
:1021A00000240021002500F00046B6F1004F02D1C6
:1021B000364EF16901E0354E7168C0F3034583B2D4
:1021C00000F44016B6F5401F08D121F070612F4E83
:1021D000766826F070662D4F7E6012E000F480165F
:1021E000B6F5801F06D1032606FA05F4A14341F097
:1021F000706106E0460D360103FA06F6B14341F080
:10220000706122B1460D360103FA06F6314300F043
:102210000046B6F1004F02D11C4EF16101E01B4EA9
:102220007160F0BD30B500228B071C0F0F2303FA3D
:1022300004F2164B08338C1053F824309343134C9C
:1022400008348D1044F8253023468C1053F8243080
:102250008C07240F00FA04F423430C4C08348D102F
:1022600044F8253030BD0A49DC3108607047000071
:1022700000080140000C0140001001400014014022
:1022800000180140001C01400020014000000140F6
:1022900000002042DF48006840F00100DD4908608E
:1022A00008464068DC490840DA494860084600684A
:1022B000DA490840D74908600846006820F48020C1
:1022C00008600846406820F4FE0048604FF41F0094
:1022D00088607047CF49096821F48031CD4A116088
:1022E0001146096821F480211160B0F5803F03D0C8
:1022F000B0F5802F0ED106E0C649096841F480315F
:10230000C44A116007E0C349096841F4A021C14AE9
:10231000116000E000BF00BF704710B50146002209
:10232000002300204A11012A02D1BA4C236806E09A
:10233000022A02D1B74C236A01E0B64C636A01F06D
:102340001F02012494401C400CB1012000E0002039
:1023500010BD38B5002000900024002500BF3120BA
:10236000FFF7DBFF05460098401C00900098B0F591
:10237000A06F01D0002DF2D03120FFF7CEFF08B1C1
:10238000012400E00024204638BD01460020A14A77
:10239000106820F0F80040EAC10010607047A049C2
:1023A00008607047024600209A4B586820F47C1061
:1023B00042EA01031843974B5860704798490866F2
:1023C000704701460020934A506820F003000843FC
:1023D000506070478F48406800F00C00704701461D
:1023E00000208C4A506820F0F0000843506070478D
:1023F00001460020874A506820F4E060084350609E
:10240000704701460020834A506820F4605040EA3B
:10241000C1005060704729B17E4A527A02437D4B19
:102420005A7204E07B4A527A82437A4B5A7270475E
:102430007B49D8310860704701460020754A5068D2
:1024400020F440400843506070470021714A203218
:102450001170704A82F82010012802D004280AD195
:1024600004E001216B4A2032117005E00521694A20
:102470002032117000E000BF00BF7047694908605A
:1024800070476449096A0143624A116270476549AD
:1024900044390860704730B5002100220024002331
:1024A0005C4D6D6805F00C0121B1042905D00829A7
:1024B00023D105E05C4D056022E05B4D05601FE027
:1024C000544D6D6805F47012524D6D6805F48034FA
:1024D000022505EB92421CB9544D554305600BE0B3
:1024E0004C4D6D6805F400351DB1504D55430560E8
:1024F00002E04D4D5543056002E04B4D056000BFC5
:1025000000BF444D6D6805F0F0010909484D6B5C52
:102510000568DD4045603F4D6D6805F4E061090ADE
:10252000434D6B5C4568DD4085603A4D6D6805F450
:102530006051C90A3E4D6B5C4568DD40C560354D54
:102540006D6805F44041890B3A4D6B5CC568B5FB7D
:10255000F3F5056130BD29B12E4A526902432D4B76
:102560005A6104E02B4A526982432A4B5A617047F0
:1025700029B1284A92690243264B9A6104E0254A10
:1025800092698243234B9A61704729B1214AD269EB
:102590000243204BDA6104E01E4AD26982431D4B9C
:1025A000DA61704729B11B4AD2680243194BDA60DD
:1025B00004E0184AD2688243164BDA60704729B1AA
:1025C000144A12690243134B1A6104E0114A12695A
:1025D0008243104B1A6170471249403908607047B6
:1025E0000F49C86470470B49C87170470948406A71
:1025F00040F0807007494862704701460020054A54
:1026000092680A400AB1012000E0002070470149A9
:1026100088727047001002400000FFF8FFFFF6FECE
:10262000000042428004424200127A0000093D004C
:10263000160900202609002010B50446FB488442F4
:1026400009D101218803FFF7ADFF00214FF480403D
:10265000FFF7A8FF32E0F648844209D1012148047F
:10266000FFF7ADFF00214FF40030FFF7A8FF25E092
:10267000F048844209D101218804FFF7A0FF00211E
:102680004FF48020FFF79BFF18E0EB48844209D10C
:102690000121C804FFF793FF00214FF40020FFF74A
:1026A0008EFF0BE0E548844208D101210805FFF7C1
:1026B00086FF00214FF48010FFF781FF10BD2DE948
:1026C000F04786B005460E460024A24600BFA1464C
:1026D0000027B08900B100BF2F462C8A4CF6FF704E
:1026E0000440F08804432C82AC894EF6F310044079
:1026F000B08831890843718908430443AC81AC8AAE
:102700004FF6FF400440B0890443AC8201A8FFF7B4
:10271000C2FEC648874202D1DDF810A001E0DDF814
:102720000CA0A88900F4004040B10AEBCA0000EBFD
:102730000A1031684900B0FBF1F807E00AEBCA0063
:1027400000EB0A1031688900B0FBF1F86420B8FB97
:10275000F0F004012009642101FB1089A88900F42C
:10276000004040B1322000EBC900B0FBF1F000F0B6
:102770000700044308E0322000EB09106421B0FB9D
:10278000F1F000F00F0004432C8106B0BDE8F087A3
:102790004FF41651016000218180C18001810C211C
:1027A000418100218181704710B502460020108AC6
:1027B0004FF2FF0318400B884C8823438C88234337
:1027C000CC8823431843108210BD00210180418032
:1027D0008180C180704721B1828942F40052828198
:1027E00004E082894DF6FF731A4082817047F0B58C
:1027F0000346002400260025002040F66A17B9424F
:1028000000D100BF1846C1F3421401F01F06012792
:1028100007FA06F5012C01D10C3004E0022C01D19D
:10282000103000E014301AB107682F43076002E04F
:102830000768AF430760F0BD1AB1838A0B438382F8
:1028400002E0838A8B4383827047028A4FF6F073DB
:102850001A400282028A0A430282704782894FF23A
:10286000FF731A40828182890A438281704721B1B5
:10287000828942F00202828104E082894FF6FD7370
:102880001A4082817047028A4FF6DF731A40028233
:10289000028A0A430282704721B1028A42F48042CE
:1028A000028204E0028A4BF6FF731A4002827047EC
:1028B000C1F308028280704701468888C0F308008F
:1028C0007047818941F0010181817047028BD2B24A
:1028D0000283028B42EA012202837047028B02F4D8
:1028E0007F420283028B0A430283704721B1828AAE
:1028F00042F02002828204E0828A4FF6DF731A409F
:102900008282704721B1828A42F01002828204E002
:10291000828A4FF6EF731A408282704721B1828A11
:1029200042F00802828204E0828A4FF6F7731A406E
:102930008282704721B1828942F40042828103E0A1
:102940008289C2F30E028281704721B1828A42F4E9
:102950000062828204E0828A4FF2FF731A40828210
:102960007047828A4FF6FB731A408282828A0A433A
:102970008282704721B1828A42F00202828204E0A0
:10298000828A4FF6FD731A40828270470246002009
:10299000B1F5007F00D100BF13880B400BB10120BF
:1029A00000E00020704701F40072B2F5007F00D112
:1029B00000BFCA430280704770B50246002400235E
:1029C0000025002040F66A16B14200D100BFC1F3D5
:1029D000421501F01F03012606FA03F3012D02D16F
:1029E0009689334006E0022D02D1168A334001E079
:1029F000968A33400C12012606FA04F416883440F5
:102A000013B10CB1012000E0002070BD10B5002210
:102A1000002340F66A14A14200D100BF0A1201242B
:102A20009440A3B2DC43048010BD00000038014094
:102A30000044004000480040004C0040005000406E
:102A4000704700000FB4044910B503AA029800F0C3
:102A50008DFB10BC5DF814FB100900200FB41CB5F1
:102A6000074B06AA7B4469460090059800F065FB79
:102A70000020694600F074FB1CBC5DF814FB0000EC
:102A8000F906000070B5044685690068C10601D5E5
:102A9000302600E02026C00707D070BDD4E9012110
:102AA00030469047206A401C20626D1EF6D570BDEE
:102AB00070B5044685690078C00707D170BDD4E9B8
:102AC000012120209047206A401C20626D1EF6D50F
:102AD00070BD00002DE9F0410646002410687529FC
:102AE000314616A510D0AFF30080002802DA40422C
:102AF00013A507E031688A0701D512A502E049074E
:102B000004D511A5012401E0AFF3008000210A22C1
:102B100006F1240709E0B0FBF2FCB0FBF2F302FB84
:102B20001C00303078541846491C0028F3D1234645
:102B30002A463046BDE8F04100F093B8000000009E
:102B40002D0000002B000000200000002DE9F047C0
:102B50004FF0000A89460446C0F820A02046E168EC
:102B60008847002876D0252806D0D4E9012190474F
:102B7000206A401C2062F1E7E16820460025884772
:102B8000C4F81CA006460027C4F818A02A2E09D0B5
:102B9000304601F038F838B304EB8708303EC8F807
:102BA000186019E059F8041B204604EB8702916174
:102BB000E1688847012F064618D1E069002820DA2D
:102BC00025F020051DE0D8F8180000EB800006EB8A
:102BD00040003038C8F818002046E16888470646AB
:102BE00001F011F80028EED1012F0AD02E2E08D1C5
:102BF0002046E16888477F1C0646022F45F02005E5
:102C0000C4DBA069002803DA404245F00105A06159
:102C1000E80701D025F01005B6B1A6F1410019284A
:102C200002D8203645F400654A46314620462560E4
:102C30004D46FDF7DBFA58B1012806D0ED1D25F011
:102C4000070000F1080989E704E005F1040985E7B8
:102C500030468AE7206ABDE8F087704770477047C2
:102C600070472DE9F0470D4699469246044600F11B
:102C700024080168880604D5E06921F0100121606C
:102C800000E00120A84201DD471B00E00027A16908
:102C90007A1902EB0900081AA0612078C00602D454
:102CA0002046FFF7EFFE002608E0D4E901211AF8DC
:102CB00006009047206A401C761C20624E45F4DBDB
:102CC0002078C0060AD52046FFF7DCFE06E0D4E9EE
:102CD000012130209047206A401C2062381EA7F155
:102CE0000107F4DC07E0D4E9012118F8050090475A
:102CF000206A401C2062281EA5F10105F3DC204655
:102D0000FFF7D6FE2078000602D50220BDE8F08746
:102D10000120FBE770472DE9FF4F0C461E464FF0A0
:102D2000FF378BB0D2E90001DDF860800A908A4657
:102D3000C1F30A5505B93D46002108464FF0000091
:102D4000BAF1000F00F4400005DA00EB80004FF408
:102D5000400101EA50004FEA9059B9F1010F00DD3E
:102D6000B9460A9850EA4A000ED044F61050A5F22F
:102D7000FF3545432F14B8F1000F1ED07542291EB0
:102D80001EDDC9F100021CE0B8F1010F4FF0000098
:102D900001D0302103E0F24305E02154401CB04251
:102DA000FBDB30460022002121540B99C1F808803A
:102DB000C1E900200FB0BDE8F08FBD1B6D1CDEE740
:102DC0004A4600DA694206A800F06CFA06AB93E8BE
:102DD000070003AB83E8070050460A9900F044FB64
:102DE0008DE80700A0F500501F3800900398002DD3
:102DF00009DD42F21F014A46084403A903906846D0
:102E000000F0A3FD08E0A0F500504A461F3803A9D2
:102E10000390684600F0ADFD8DE807000004000C4B
:102E200003D04FF0FF30410800E01046B8F1000F2A
:102E300003D00022009215461EE0751E05D400F056
:102E4000ABF9303262556D1EF9D5B3460122084305
:102E500002D000227F1C04E02078302801D100221B
:102E60007F1E002A099786D01DE0112D07DA00F099
:102E700093F9303262556D1C50EA0102F5D10843D6
:102E800002D00098C8B10EE00021681E05E0235C66
:102E9000625C63542254401E491C8142F7DBAB46FE
:102EA000A81B401E0990002004F80B000B98099AFB
:102EB000C0F80880C0E9002B7CE711264FF000081D
:102EC00059E72DE9F04F88460446D21D22F007014C
:102ED00091B0D1E90001CDE90A0100F080FE02467F
:102EE0000B98C00F01D02D2007E02068810701D585
:102EF0002B2002E0202101EAC000032A099001D022
:102F0000072A05DB03464146204600F08BF90BE11A
:102F10002078800601D5E06900E00620B8F1650F51
:102F2000814606D0B8F1660F18D0B8F1670F70D19E
:102F300031E00020B9F1110F009001DB112301E015
:102F400009F101030AAA01A90CA8FFF7E4FEDDE9D3
:102F50000C70002609F10105834647E001204B462D
:102F600000904FF000470AAA01A90CA8FFF7D3FE72
:102F7000DDE90DB00C995D46002610B909F101009C
:102F80000D18B9EB050003D4C0F1FF3609F10105B6
:102F9000A5EB09002BE0B9F1010F01DA4FF00109AF
:102FA0000020B9F1110F0090484601DD112300E027
:102FB00003460AAA01A90CA8FFF7ADFEDDE90C70D3
:102FC0004D4600268346207800070AD4AB4500DA38
:102FD0005D4601A8012D04DD411911F8011C3029BD
:102FE00007D04F4502DA17F1040F04DA01208246B8
:102FF0000FE06D1EEEE7002F02DCED1B3E4403E008
:10300000781CA84200DD7D1CB81B00F1010A4FF0BE
:1030100000472078000703D4AA4501DB4FF0FF3AB0
:103020000021B7F1004F0DF143088DF8431024D073
:1030300002202B23002F01DA7F422D230A21021EBA
:10304000A0F1010000DC5FB197FBF1FC97FBF1F20E
:1030500001FB1C7C17460CF1300C08F801CDEEE7A3
:10306000A8F1010003702188090501D5452100E080
:103070006521A0F1010800F8011C09980FA9A1EB36
:103080000807FF1D00B10120411901EBEA70A16999
:103090003844081A401EA0612078C00602D4204699
:1030A000FFF7F0FC099828B1D4E901219047206A84
:1030B000401C20622078C00622D52046FFF7E2FCA3
:1030C0001EE0002E04DBB34502DD01A8805D00E0B8
:1030D0003020D4E901219047206A401C2062761CF0
:1030E000AAF101005FEA000A0AD100F051F8C068B5
:1030F0000168405CD4E901219047206A401C2062AD
:10310000281EA5F10105DCDC07E0D4E9012118F84F
:10311000010B9047206A401C2062381EA7F101076E
:10312000F3DC2046FFF7C4FC032011B043E60000A7
:1031300001694A1C02610878704700B58FB0CDE97B
:1031400001310021059105497944CDE9031011466B
:103150006846FFF7FBFC0FB000BD0000E5FFFFFF76
:103160000A6802F8010B0A6070470000074B70B54F
:103170000D467B44FFF7E1FF0446284600F000F9C6
:1031800010B14FF0FF3070BD204670BD45EBFFFF22
:1031900000487047A40A002030B5B0F10A024FEA97
:1031A000900E71F100034EEA817EB0EB0E0061EBF0
:1031B00091014FEA101E4EEA017E10EB0E0041EB2A
:1031C00011114FEA102E4EEA016E10EB0E0041EB8A
:1031D00011214FEA104E4EEA014E10EB0E0041EB6A
:1031E0001141401841F100014FEAD00040EA41701E
:1031F0004FEAD10110EB80054FEA810444EA907454
:1032000044EB01046D1944EB0404521BA3414FF03D
:10321000000348BF0A3200D530BD401C41F1000117
:1032200030BD00002DE9F0411F4604460326016829
:10323000072A01F4006004DB08B116A505E016A515
:1032400003E008B115A500E015A521F010002060ED
:10325000A069C01EA0610FB1401EA0612046FFF70B
:1032600011FC4FB1D4E9012138469047206A401C37
:103270002062C01C206206E0206AFAE7D4E901213E
:1032800015F8010B9047761EF8D22046FFF710FC88
:10329000BDE8F0814E414E006E616E00494E460021
:1032A000696E66002DE9F047814616468AB03348BC
:1032B00078440DC88DE80D0030487844801C03AC7C
:1032C0000DC884E80D0041F69B300844372190FB7F
:1032D000F1F290FBF1F5A5F1800501FB12041B3C16
:1032E00002D56442012000E00020DFF890A0804673
:1032F0000027FA44AAF1BE0A0DE0E00709D03246E1
:10330000684607EB47010AEB810100F032FB8DE8CC
:10331000070064107F1C002CEFD1184F7F44AC3F96
:1033200018E0E80714D007EB04100DF1180A90E834
:103330000E008AE80E00C068F04201D1981908908A
:10334000324606A903A800F014FB03AB83E807008C
:103350006D10641C002DE4D132466946B8F1000FAF
:1033600003A802D000F0F1FA01E000F002FBC9E985
:103370000001C9F808200AB0BDE8F087FC2700006A
:10338000007B00F08000704700487047840A0020EE
:103390007546FFF7F9FFAE4605006946534620F033
:1033A0000700854618B020B5FEF746FDBDE8204071
:1033B0004FF000064FF000074FF000084FF0000BF1
:1033C00021F00701AC46ACE8C009ACE8C009ACE8A4
:1033D000C009ACE8C0098D4670470446AFF30080D1
:1033E0002046FCF720FF00004FF0013C50F8042B72
:1033F00051F8043B9A4221D1A2EB0C03934313EA08
:10340000CC1317D150F8042B51F8043B9A4215D134
:10341000A2EB0C03934313EACC130BD150F8042B0B
:1034200051F8043B9A4209D1A2EB0C03934313EAEF
:10343000CC13DBD04FF00000704700BFD01A01BAA8
:10344000B1FA81F101F0180122FA01F0CB40C1F18B
:103450002001DBB2C0B2C01A2CFA01F3D11A914399
:1034600011EAC311E6D170475FEA400C08BF91F042
:10347000000F4FEA8C234FEAC12243EA51514FEA31
:103480001C5018BF00F5F0404FEA300018BF41F063
:1034900000415FEA6C5C00F02980BCF1FF3F08BF8F
:1034A00040F080407047130C06BF12044FF0100C20
:1034B0004FF0000C130E04BF12020CF1080C130F96
:1034C00004BF12010CF1040C930F04BF92000CF125
:1034D000020CD30F04BF52000CF1010C11464FF047
:1034E0000002A0F11F00A0EB0C00704711F0004F8C
:1034F00008BF704731F000413FF4D5AF0B0C06BF59
:1035000009044FF0100C4FF0000C0B0E04BF090221
:103510000CF1080C0B0F04BF09010CF1040C8B0F0C
:1035200004BF89000CF1020CCB0F04BF49000CF161
:10353000010CCCF12003A0EB0C0022FA03F302FAF9
:103540000CF241EA030100F10100704720F07F4CCA
:1035500080EA030023F07F47ACEB070303F57C53BD
:1035600000F0004003F1FF032DE980494FEA154BBD
:1035700009B44FEA144325EA0B4E24EA03480FF23C
:10358000042606EB132749083E785FEA320203FB64
:103590000667C7F5000707FB06F64FEA54374FEA00
:1035A000D64606F1020607FB066CCCF1005C4FEA3A
:1035B0001C472CEA074C07FB06F40CFB06F504EB52
:1035C00015464FEA961634BF00204FF000404FEAF0
:1035D000D13706FB07FC4FEA1C4C0CFB0BF7D21B48
:1035E00003FB0CF761EB07010CFB0EF7B0EB074098
:1035F00072EB17420CFB08F734BFA2EB0742B2EBA9
:10360000074261EB17414FEA0C444FEA910706FB72
:1036100007FC4FEA1C4C0CFB0BF7B0EBC74072EBFE
:10362000573203FB0CF734BFA2EBC742B2EBC742E1
:1036300061EB57310CFB0EF7B0EBC70072EB577222
:103640000CFB08F734BFA2EBC702B2EBC70261EB79
:103650005771039F4FEA816141EA921104EBCC0458
:103660004FEAD1374FEA826206FB07FC42EA90122A
:103670004FEA80604FEA1C4C0CFB0BF7D21B03FB9C
:103680000CF761EB07010CFB0EF7B0EB074072EB98
:1036900017420CFB08F734BFA2EB0742B2EB07421C
:1036A00061EB17414FEA8C554FEA910704EB9C24DC
:1036B00006FB07FC4FEA1C4C0CFB0BF7B0EBC740BA
:1036C00072EB573203FB0CF734BFA2EBC742B2EBED
:1036D000C74261EB57310CFB0EF7B0EBC70072EB42
:1036E00057720CFB08F734BFA2EBC702B2EBC7025C
:1036F00061EB577115EB4C254FEA816141EA92115C
:103700004FEA82624FEAD13742EA901206FB07FC89
:1037100044F100044FEA80604FEA1C4C0CFB0BF7AD
:10372000D21B03FB0CF761EB07010CFB0EF7B0EBB0
:10373000074072EB17420CFB08F734BFA2EB0742BD
:10374000B2EB074261EB174115EB1C154FEA8131D3
:1037500041EA92414FEA823242EA90424FEA803097
:103760004FEA0C7644F1000448EA03434EEA0B4862
:103770004FF0000EB2EB080C71EB030724BF62465A
:1037800039464EEB0E0E4FF0000B001852414941E6
:103790004BEB0B0BB2EB080C71EB03077BF1000B4F
:1037A00024BF624639464EEB0E0E4FF0000B001858
:1037B000524149414BEB0B0BB2EB080C71EB030789
:1037C0007BF1000B24BF624639464EEB0E0E51EAE8
:1037D000020718BF46F0010616EB0E7655F10002FF
:1037E00054F1000103D5BDE88901BDE80088BDE8BA
:1037F0008901BDE80048B619524141EB0101A3F12E
:103800000103704780807F7E7D7C7B7A7978777634
:1038100076757473727171706F6E6E6D6C6C6B6AAD
:103820006A6968686766666564646363626161604B
:10383000605F5F5E5E5D5D5C5C5B5B5A5A595958C8
:103840005857575656555555545453535252525132
:10385000515050504F4F4F4E4E4D4D4D4C4C4C4B88
:103860004B4B4A4A4A4949494848484747474746CF
:10387000464645454544444444434343434242420B
:1038800042414141002B26D4770021D01CB54FEA9C
:10389000370703B44FF010004FF010014FF0000055
:1038A0000FBCBDE810400BF1010BBBF1010F08BFCD
:1038B0005FEA170722BF12F1010211F101014FF077
:1038C000004143F1000300F0004043EA000070476C
:1038D000F9D35708DAE746EA064613F1400F4FEAF4
:1038E00016461FDD13F1200FDFBF16430A460021E5
:1038F00020335B42C8D0C3F1200746EA064602FAED
:1039000007F74FEA164646EA0706C3F1200722FAF0
:1039100003F201FA07F721FA03F14FF0000342EA3C
:103920000702B1E746EA020646EA06464FEA1646AD
:1039300046EA0106BCBF46EA0646360C4FF00003D5
:103940004FF000024FF000019EE72DE9C04893467A
:1039500030B491E8380007C831EA400C48BF34EA77
:10396000430C03D5FFF7F2FDFFF78CFFF0BCBDE879
:1039700000882DE9C048934630B491E8380007C864
:1039800010F0804F08BF13F0804F03D100F005F80E
:10399000FFF778FFF0BCBDE8008820F07F4780EAA1
:1039A000030023F07F4C07EB0C03A3F57C5300F0DE
:1039B0000040A3F1FE0392F0000F00F0B38095F0F9
:1039C000000F00F077802DE901494FEA11404FEADE
:1039D000144621EA004800FB06FC24EA064708FBDF
:1039E00006F607FB08F800FB07F718EB06484CEB58
:1039F000164C4FEA124B18EB07484FEA15464CEBB2
:103A0000174022EA0B4E0BFB06FC25EA06470EFB8D
:103A100006F607FB0EFE0BFB07F71EEB064E4CEB04
:103A2000164C4FF000061EEB074E4CEB174B18EBF5
:103A30000B0840F1000018EB0E0B58EB000840F1AA
:103A400000008F1A4FF000013CBFC943661B14BF32
:103A5000B5EB040C00213CBFC943F61B4FEA1744E9
:103A60004EEA8E0E27EA04454FEA1C4704FB076224
:103A70002CEA074C05FB07F70CFB05F604FB0CFCD6
:103A800016EB074642EB174216EB0C4642EB1C4284
:103A90001BEB060658EB0202414146EA9E0601D5A1
:103AA000BDE80189B619524141EB0101A3F10103BF
:103AB000BDE801894FEA14454FEA114724EA05465B
:103AC00021EA074C05FB07F406FB07F70CFB06F1A0
:103AD00005FB0CFC11EB074144EB17444FEA12477E
:103AE00011EB0C4144EB1C4422EA074C05FB07F2A6
:103AF00006FB07F70CFB06F605FB0CFC16EB07466E
:103B000042EB174216EB0C4642EB1C456A1854F187
:103B1000000148BF7047B619524141EB0101A3F1C2
:103B20000103704795F0000F37D04FEA11424FEA7A
:103B3000144721EA024624EA074C02FB07F106FB80
:103B400007F70CFB06F402FB0CFC14EB074441EBFB
:103B500017414FEA154714EB0C4441EB1C4125EA91
:103B6000074C02FB07F506FB07F70CFB06F602FB0A
:103B70000CFC16EB074645EB174516EB0C4645EBE0
:103B80001C42121951F1000148BF7047B619524149
:103B900041EB0101A3F1010370474FEA14454FEADD
:103BA000114724EA054621EA074C05FB07F106FB0D
:103BB00007F70CFB06F24FF0000605FB0CFC12EBBE
:103BC000074241EB174112EB0C4251EB1C4148BF3D
:103BD0007047921841EB0101A3F1010370474900BE
:103BE00050EAC12018BF04204A0D18BF40F0010060
:103BF00040F2FF72B2EB515F08BF40F002000128B3
:103C000008BF0520704730380A2801D201207047CC
:103C10000020704710B500290AD00878002807D086
:103C200005487844FFF7E0FB002801D0002010BDD4
:103C30000248784410BD0000C61E0000BE1E0000F1
:103C400021F00042A2F16052B2F5801F01F0004362
:103C500028BFD2F17F6C0BD95FEA001C43EAC20295
:103C600042EB507018BF704728BF20F0010070472A
:103C7000B2F5801FBCBF184670474FEA410C1CF5D7
:103C8000001F02D2084600F05CBD70B500F0B4FA27
:103C900000000089FFF7F6BF4FF00040A0F580005C
:103CA0007047000010B591EA030F48BF83F000434E
:103CB00000F1FE82841A71EB030C05D2121943EB5A
:103CC0000C03001B61EB0C01DFF824E14FEA1154F7
:103CD000A4EB135C1EEA430F18BF9EEA445F73D047
:103CE00023EA0E03DCF1200E21EA045143F4801391
:103CF00032D322FA0CFE10EB0E0023FA0CFE41EB3D
:103D00000E01CCF1200E03FA0EFE10EB0E0051F165
:103D10000001B1F5801FCCF1200E32D201EB04512D
:103D200012FA0EF2BDE8104058BF7047401C38BF71
:103D30005FEA420218BF7047002814BF20F001005C
:103D400041F100014FEA410313F5001F38BF7047EE
:103D5000A1F1C04100F09EBA012A43EB0302ACF18D
:103D6000200CDCF11F0E32BF4FF0000E23FA0CF3D3
:103D700010EB030041EB0451B4EB115FD0D0A1EB89
:103D8000045101F5801149085FEA300001EB04514C
:103D90000ED350F1000038BF12FA0EFE08D1BDE874
:103DA0001040C9E7401C38BF5FEA4202CAD1C3E7EE
:103DB000BDE810404FEA410313F5001F38BF7047BC
:103DC000A1F1C04100F066BA9EEA445F08D011EA52
:103DD0005E0FBDE8104004BF01F0004100207047B5
:103DE000BDE8104070B500F007FA00BF64FBBE3EAE
:103DF0000000E0FF2DE9C04130B4DFF8A0C23CEA8A
:103E0000111418BF3CEA131400F0EC8081EA03059A
:103E10001CEA111444EAD57418BF1CEA131500F00B
:103E2000C780A4EB05044FF0004545EAC12145EAEF
:103E3000C32341EA505143EA525304F17F7499423B
:103E400004F500344FEAC0204FEAC22208BF904276
:103E500000F09C804FEA13650FF24016765D4FEA42
:103E6000134506FB05F7C7F1807706FB07F74FEA16
:103E7000D737A7FB03687642C8F58038A7FB06CE84
:103E800038BFA8F1010807FB08E64FF0000EA6FBBB
:103E9000028CE6FB03CEDCF1000CCEF1004E38BF05
:103EA000AEF1010EA6FB0C584FF000074FF00005D5
:103EB000E6FB0E87A1FB08C6A0FB07CE16EB0E069D
:103EC00045F10005E1FB076515F1E04E7EBFA4F565
:103ED00080345FEA46066D4116F1800745F1000522
:103EE0004FEA17274FEA066647EA0567A6F1DE465E
:103EF000B6F1805F4FEA15251FD9384624F0010C32
:103F000005EBC471BCF1FE6F01EB0C1102D8F0BCE3
:103F1000BDE8008124425CBF01F5801E9EEAC47F9B
:103F200002D4F0BCBDE80081244238D4F0BCA1F139
:103F3000C041BDE8004100F0ADB94FEAD22242EAEB
:103F400043524FEAD323A7FB02864FEAD02040EA30
:103F5000415007FB03661EEA0E0F4FEAD12105FB15
:103F6000026658BFA6EB0056B6EB00564FEA520E5B
:103F70004EEAC37E18EB0E0E56EB530EBDD518EB72
:103F800002085E417F1C55F10005B6E74FF480152D
:103F90004FF000074FF000064FF00008ADE7F0BC0F
:103FA0004FF0000001F1C04101F00041BDE8008187
:103FB00011EA0C1F0CEA131500D00CE013EA0C1FD9
:103FC00000F025804FF00000F0BC81EA030101F011
:103FD0000041BDE80081F0BCBDE8004181EA030179
:103FE00000F058B9F0BCBDE8004170B500F004F92C
:103FF000097EFC3E00F007B881EA03014FF00000A3
:1040000001F00041704781EA030100F043B9F0BCC0
:10401000BDE800414FF0000021497047FFFDFBF96A
:10402000F7F5F4F2F0EEEDEBE9E8E6E4E3E1E0DEEB
:10403000DDDBDAD8D7D5D4D3D1D0CFCDCCCBCAC85D
:10404000C7C6C5C4C2C1C0BFBEBDBCBBBAB9B8B784
:10405000B6B5B4B3B2B1B0AFAEADACABAAA9A8A877
:10406000A7A6A5A4A3A3A2A1A09F9F9E9D9C9C9B45
:104070009A999998979796959594939392919190F0
:104080008F8F8E8E8D8C8C8B8B8A89898888878781
:104090008685858484838382828181800000FF07F6
:1040A0000000F87FDFF848C170B51CEA111E1EBF82
:1040B0001CEA13159EEA0C0F95EA0C0F00F06F80B6
:1040C00081EA030423EA4C134EEAD47E21EA4C1120
:1040D00041F4801143F48013AE44A1FB024CA0FBD9
:1040E0000365AEF17F7E361955EB0C05A1FB034C41
:1040F0004CF10003A0FB021C16EB0C06654153F1CA
:104100000003094218BF46F0010613F4007F0BD1EB
:104110004FEA03314FEA0530340341EA155140EAD2
:1041200016506FF003020AE04FEAC3214FEAC520A0
:10413000F40241EA555140EA56506FF0020202EB98
:104140002E4201EB025585EACE710AD05FEA440C9B
:1041500018BF24F0004450F1000041F1000120EAB2
:10416000D47040F2FE7C624500D270BDA84214BFFC
:104170004FF080444FF04044002E08BF0024BEF1B1
:10418000806FA8BFA1F1C041BDE8704080F282807D
:104190004FF0000001F1C04101F0004170479EEA7C
:1041A0000C0F0CEA131518BF95EA0C0F06D04FF050
:1041B000000081EA030E0EF0004170BD00F01CF813
:1041C0008900013E00F007B800F009B84FEA430C3F
:1041D0005FEA5C5C08D081EA030100F05BB84FEA5B
:1041E000410C5FEA5C5CF6D14FF00000014970477A
:1041F0000000FF070000F87F0EF1020E2EF0030E04
:104200005EF8046B364205D4012A43EB030515F52D
:10421000001F12D8012841EB010C1CF5001F0CD81F
:104220000ED14FEAD17C15F5001F0CEB4C0C0CF1B4
:10423000020C08BF4CEBD37C04E04FF0080C01E00B
:104240004FEAD37C0CEB4C0526FA05F606F0070680
:10425000B6F1040C06D20EEB860CBDE870404CF0B3
:10426000010C6047DFE80CF0090B02024FF000413F
:104270004FF00000A1F5002170BD1946104601283D
:1042800051EB010418BFD4F5001484BF002001F0E5
:10429000004170BD0808A0F500114FEA31017047D8
:1042A00010B591EA030F48BF83F000433FF502AD1C
:1042B000841A71EB030C07D212198CF0004C43EBFB
:1042C0000C03001B61EB0C01DFF8A4E14FEA115471
:1042D000A4EB135C1EEA430F18BF9EEA445F00F094
:1042E000B08023EA6E03524221EA0451C3EB6E030D
:1042F00038BF5B1EDCF1200E25D322FA0CFE10EB3A
:104300000E0043FA0CFE41EB0E01CCF1200E03FA35
:104310000EFE10EB0E0051F10001CCF1200E29D45D
:1043200012FA0EF201EB0451BDE8104058BF70477D
:10433000401C1CBFB2F1004F704700280CBF491C45
:1043400020F00100704712EB020E43EB030218BF8E
:104350004FF0010E4EEA4202ACF1200CDCF11E0ED1
:1043600054D943FA0CFE10EB0E0051F1FF31CCF1A1
:104370001E0ED5D50EF1010E12FA0EFE404141EB94
:10438000010101EB445C5FEA5C5C10D910EBDE706C
:1043900001EB045138BFBEF1004FBDE8104018BF1B
:1043A000704700280CBF491C20F00100704730D234
:1043B0004FEAD42C11F5001124F400641BD0B1FA9B
:1043C00081F20B3AA41AA41ED2F12003914030FAD4
:1043D00003F31943904001EBCC71002C01EB045125
:1043E000BDE81040A8BF704701F1C0414FF0000088
:1043F00001F000417047B0FA80F310FA03F100D1E8
:1044000010BDE41A173C4805C90AE4E701EB045162
:1044100010BD491001EB0451BDE810404FEA3000D7
:1044200002E04FF0000170474A0008BF0042F8D098
:10443000B2F5001F28BF704701F000414FF00000A7
:1044400070479EEA445F07D011EA5E0FBDE8104056
:1044500004BF002100207047BDE8104070B5FFF791
:10446000CBFE00BF40DFF63E83F0004110467047B0
:104470000000E0FF43004FEAD30C4FEA3C0C4340FE
:104480001FBF40070CF1605113F0FE4F70471CF046
:10449000006F03D100200CF0004170470CF0004386
:1044A00043EA507010B540EACC0000F004F900BFB8
:1044B000000000924FEA0001FFF7ECBE4FF0004110
:1044C0004FF00000A1F500217047401058BFC0F127
:1044D0004040491058BFC1F140418142EFF3008094
:1044E00070470000C10DD1F19E0206DB4FEA0023A8
:1044F00043F0004323FA02F07047004207D54FEA29
:104500004001B1F1FE4F02D24FF00000704710B5EC
:1045100000F0D1F849922480002070476FEA200013
:1045200070470000B0FA80F310FA03F2C3F19D0364
:104530000AD0D90501EB1220530638BF704700F1AD
:10454000010008BF20F001007047000050EA010C94
:1045500000F113801CF5000F58BFBCF5000F01D40B
:104560008842704707D710F5000F58BF11F5000FAC
:1045700015D488427047894270471CF5000F04D556
:10458000BCF5000FF7D5814270474FF0807C1CEBE3
:10459000400F38BF1CEB410F01D28142704710B56C
:1045A00000F089F8922449004FF000504FF08051FC
:1045B000FFF78BBF4FF47F0C1CEAD0121EBF1CEA22
:1045C000D11392EA0C0F93EA0C0F00F0478090EAA7
:1045D000010F48BF42F480724FF0004C4CEA0020BB
:1045E0004CEA012102EB0302A0FB0113A2F5000239
:1045F000002918BF43F001035B0028BF4FEA3303D3
:1046000042EB22425FEA132C4CEBC2502EBFBCEBB4
:10461000436FB2F57C0F70474FEA036CBCF1004F5B
:1046200008BF20F00100B2F57C0F38BF70470BD5F2
:1046300082F0FF0212F5803FC8BF704700F1C04012
:10464000D8BF00F00040704700F5000C5FEA4C0C4A
:1046500048BF7047B0F1C04000F073B890EA010F56
:104660000CEAD11348BF42F48072624538BF6345FB
:1046700004D280EA010000F00040704710B500F05D
:104680001AF800BF8900013E00F007B800F009B831
:104690005FEA410C5FEA1C6C08D080EA010000F080
:1046A00050B85FEA400C5FEA1C6CF6D14FF0004056
:1046B000A0F5800070470EF1020E2EF0030E5EF89A
:1046C000044B244204D44FEA4102B2F17F4F11D887
:1046D0004FEA4003B3F17F4F0CD80ED14FEAD07CA4
:1046E000B2F17F4F0CEB4C0C0CF1020C08BF4CEB01
:1046F000D17C04E04FF0080C01E04FEAD17C0CEBD8
:104700004C0324FA03F404F00704B4F1040C06D2B9
:104710000EEB840CBDE810404CF0010C6047DFE864
:104720000CF0070802024FF00040A0F5800010BD19
:104730000846420018BFD2F1807288BF00F00040E6
:1047400010BDFF2141EAD050C005704751EA000C6E
:1047500000F113801CF5000F58BFBCF5000F01D409
:104760008142704707D711F5000F58BF10F5000FB1
:1047700015D481427047894270471CF5000F04D55B
:10478000BCF5000FF7D5884270474FF0807C1CEBDA
:10479000410F38BF1CEB400F01D28842704780EABE
:1047A000010081EA000180EA0100FFF7F8BEFEF790
:1047B00088BB0000000000000000000000000000B6
:1047C0000000000000080808080808080000181881
:1047D000000000486C2412000000000000000000EF
:1047E00000000000002424247F1212127F121212F3
:1047F00000000000081C2A2A0A0C1828282A2A1C53
:10480000080800000022251515152A585454542272
:1048100000000000000C1212120A76252911916E78
:104820000000000606040300000000000000000075
:104830000000004020101008080808080810102088
:10484000400000020408081010101010100808049E
:1048500002000000000008086B1C1C6B0808000028
:10486000000000000000080808087F080808080089
:10487000000000000000000000000000000006062C
:1048800004030000000000000000FE000000000023
:10489000000000000000000000000000000006060C
:1048A000000000008040402020101008080404028E
:1048B00002000000001824424242424242422418B0
:1048C0000000000000080E08080808080808083E54
:1048D00000000000003C4242422020100804427EBA
:1048E00000000000003C4242201820404042221CB0
:1048F0000000000000203028242422227E2020787E
:1049000000000000007E0202021A26404042221CE3
:104910000000000000382402021A264242422418F5
:1049200000000000007E2222101008080808080875
:1049300000000000003C4242422418244242423C13
:104940000000000000182442424264584040241CE9
:1049500000000000000000001818000000001818F7
:104960000000000000000000000800000000000837
:104970000804000000402010080402040810204031
:1049800000000000000000007F0000007F00000029
:10499000000000000002040810204020100804025B
:1049A00000000000003C4242464020101000181851
:1049B00000000000001C225A555555552D42221C5E
:1049C00000000000000808181414243C224242E7AA
:1049D00000000000001F2222221E22424242221F0B
:1049E00000000000007C4242010101010142221C42
:1049F00000000000001F2242424242424242221F67
:104A000000000000003F4212121E12120242423FFA
:104A100000000000003F4212121E121202020207A2
:104A200000000000003C2222010101712122221C11
:104A30000000000000E7424242427E42424242E71A
:104A400000000000003E0808080808080808083EA2
:104A500000000000007C101010101010101010103A
:104A6000110F0000007722120A0E0A12122222777A
:104A70000000000000070202020202020202427F5E
:104A8000000000000077363636362A2A2A2A2A6B9A
:104A90000000000000E346464A4A52525262624712
:104AA00000000000001C2241414141414141221CC3
:104AB00000000000003F424242423E020202020762
:104AC00000000000001C2241414141414D53321C75
:104AD00060000000003F4242423E1212222242C7C2
:104AE00000000000007C4242020418204042423E86
:104AF00000000000007F4908080808080808081C92
:104B00000000000000E74242424242424242423C30
:104B10000000000000E74242222424141418080870
:104B200000000000006B49494949555536222222B0
:104B30000000000000E7422424181818242442E74B
:104B40000000000000772222141408080808081C3E
:104B500000000000007E2120101008040442423FA3
:104B6000000000780808080808080808080808086D
:104B70007800000002020404080808101020202019
:104B80004040001E101010101010101010101010C7
:104B90001E0000384400000000000000000000007B
:104BA0000000000000000000000000000000000005
:104BB00000FF0006080000000000000000000000E8
:104BC0000000000000000000003C4278444242FC2B
:104BD0000000000000030202021A26424242261A86
:104BE00000000000000000000038440202024438C7
:104BF000000000000060404040784442424264D8D7
:104C00000000000000000000003C427E0202423C26
:104C10000000000000F08808087E08080808083E28
:104C20000000000000000000007C22221C023C4228
:104C3000423C000000030202023A4642424242E77E
:104C400000000000000C0C00000E08080808083ED8
:104C500000000000003030000038202020202020FC
:104C6000221E0000000302020272120A16122277AC
:104C700000000000000E0808080808080808083EA0
:104C80000000000000000000007F9292929292B714
:104C90000000000000000000003B4642424242E7A4
:104CA0000000000000000000003C42424242423C42
:104CB0000000000000000000001B26424242221EAD
:104CC000020700000000000000784442424244789D
:104CD00040E000000000000000774C040404041FC2
:104CE0000000000000000000007C42023C40423E08
:104CF0000000000000000008083E0808080808300E
:104D0000000000000000000000634242424262DCFA
:104D1000000000000000000000E7422424140808FE
:104D2000000000000000000000EB49495555222218
:104D30000000000000000000007624181818246EFF
:104D4000000000000000000000E7422424141808BE
:104D50000807000000000000007E22100808447EC2
:104D6000000000C020202020201020202020202013
:104D7000C000101010101010101010101010101093
:104D80001010000608080808081008080808080895
:104D900006000C32C200000000000000000000000D
:104DA0000000FFFFFFFFFFFFFFFFFFFFFFFFFFFF11
:104DB000FFFFFFFFFFFFFFFFFFFFFFFFFFFFBEF74C
:104DC0007DEFBAD6B6B5F39CB294B39CB29434A539
:104DD000F7BDFBDE7DEFFFFFFFFFFFFFFFFFFFFFE4
:104DE000FFFFFFFFFFFFFFFFFFFFFFFFFFFFFFFFD3
:104DF000FFFFFFFFFFFFFFFFFFFFFFFFFFFFFFFFC3
:104E0000FFFFFFFFFFFFFFFFFFFFBEF7FBDEF39C8F
:104E1000CB5AC7390421821042104210410883182E
:104E20004529C7390C6375AD3CE7BEF7FFFFFFFFAF
:104E3000FFFFFFFFFFFFFFFFFFFFFFFFFFFFFFFF82
:104E4000FFFFFFFFFFFFFFFFFFFFFFFFFFFFFFFF72
:104E5000FFFFFFFFFFFFFFFF3CE7B2940842C318CC
:104E600082100421452986318631863186314529D3
:104E7000042182104108C3180842F39C3CE7FFFF5D
:104E8000FFFFFFFFFFFFFFFFFFFFFFFFFFFFFFFF32
:104E9000FFFFFFFFFFFFFFFFFFFFFFFFFFFFFFFF22
:104EA000FFFFFFFFFFFFFBDE0C63C318C31845299C
:104EB000C739084208420842084208420842C73936
:104EC000C73986318631042141088210CB5ABAD6BF
:104ED000FFFFFFFFFFFFFFFFFFFFFFFFFFFFFFFFE2
:104EE000FFFFFFFFFFFFFFFFFFFFFFFFFFFFFFFFD2
:104EF000FFFFFFFFFBDECB5A82104529C73908426E
:104F00000842094A494A494A494A494A494A0842DB
:104F1000C739C739C7398631452983180000C841C8
:104F200038C6FFFFFFFFFFFFFFFFFFFFFFFFFFFF91
:104F3000FFFFFFFFFFFFFFFFFFFFFFFFFFFFFFFF81
:104F4000FFFF7DEF8E7382104529C7390842094A59
:104F50008A523084CF7B8A52494A4A52494ACB5AB4
:104F6000CF7B0C630842C73986314529C31800003E
:104F7000494ABAD6FFFFFFFFFFFFFFFFFFFFFFFF1A
:104F8000FFFFFFFFFFFFFFFFFFFFFFFFFFFFFFFF31
:104F9000FFFFF39CC3180421C7390842494A494A14
:104FA00072947DEF7DEFB2944A52494A8A5275ADB0
:104FB000BEF7BAD64D6BC739C73986314529C318F4
:104FC0004108CF7B7CE7FFFFFFFFFFFFFFFFFFFFF5
:104FD000FFFFFFFFFFFFFFFFFFFFFFFFFFFFFFFFE1
:104FE000BAD608428210C7390842494A494A8E73E4
:104FF000FBDEFFFFBEF7BAD68E73084230843CE773
:105000007DEFFFFFB6B5494AC739863145290421EE
:1050100041084529B6B5FFFFFFFFFFFFFFFFFFFF78
:10502000FFFFFFFFFFFFFFFFFFFFFFFFFFFFBEF7D9
:10503000718C410845290842494A494A4A52B2946A
:10504000BEF7BEF7B294CF7BCF7B494AB6B5F39C8F
:105050000C6338C6BAD60C638739C73986314529FF
:10506000C318410830847DEFFFFFFFFFFFFFFFFF04
:10507000FFFFFFFFFFFFFFFFFFFFFFFFFFFF3CE71B
:10508000CB5A4108C7390842494A4A528A52F39CCE
:10509000FFFF7DEFC739C3180C63CB5AB6B5B29486
:1050A000CB5A75ADFAD64D6B8739C739863145294C
:1050B000042141088A5279CEFFFFFFFFFFFFFFFF67
:1050C000FFFFFFFFFFFFFFFFFFFFFFFFFFFF38C6F0
:1050D00086310421C841494A494A4A52494AB18C59
:1050E000BEF7BEF7B294CF7BCF7B494A74A57DEF64
:1050F0007CE7BEF779CE0C63C739C73986314529BD
:1051000004218210452975ADBEF7FFFFFFFFFFFFA9
:10511000FFFFFFFFFFFFFFFFFFFFFFFFFFFF34A5C4
:10512000821086310842494A494A8A52494A4D6B9F
:10513000BAD6FFFFFFFF79CE0D63C739CF7B7DEF76
:10514000FFFFFFFF75AD08428631C739863145291B
:105150004529C318C318B2947DEFFFFFFFFFFFFF7F
:10516000FFFFFFFFFFFFFFFFFFFFFFFFBEF7B28C58
:105170004108C7390842494A494A8A528A524A4A2A
:10518000D07B7AC67BBE906BC9398831C939B3846C
:10519000BBC6F8B5CC5A8631C739C73986314529DF
:1051A0004529C420410830843CE7FFFFFFFFFFFF93
:1051B000FFFFFFFFFFFFFFFFFFFFFFFF3CE78A4A04
:1051C000C310C7390842494A494A4A4A4A42093A39
:1051D000084A096B497BC67A05834683C57AC6723D
:1051E000097B485A873188218829863186314529AB
:1051F0004529042141084A4ABAD6FFFFFFFFFFFFB5
:10520000FFFFFFFFFFFFFFFFFFFFFFFFF7C582501C
:105210000541C7290842494A4A42494A097B889BB5
:10522000C6B321D4A0DCE1E461ED61ED21EDA0E4A1
:1052300020DC80CB43ABC482065A4721462945294E
:105240000429041982108218F39C7DEFFFFFFFFFF1
:10525000FFFFFFFFFFFFFFFFFFFF7DEF4D9300A06C
:1052600082B8C7310932494A867A43C36BEDF4F6F6
:10527000EBFD20FD20FD60FDA0FDA0FD60FD60FDBB
:1052800020FDE0FCA0FC60F4C1DB839AC549452900
:105290000419C42082380050CB6ABAD6FFFFFFFF42
:1052A000FFFFFFFFFFFFFFFFFFFFFBEE04A100C0BA
:1052B00000F0C3A0C8414942059B20FCA4FC69FD45
:1052C000E8FD63FD20FD60FD60FD60FD20FD20FD2B
:1052D000E0FCE0FCA0FC60FC20FC41D3C549451982
:1052E000C438826841880070495A79CEFFFFFFFFB9
:1052F000FFFFFFFFFFFFFFFFFFFFFBF682C000D0B5
:1053000086C146F141C8457989528862866AC67A63
:10531000C4BBE1FC60FD60FDA0FDA0FD60FD60FD83
:10532000E0FC60E403938472446AC5414529C35894
:1053300041A8409800B000600C6B79CEFFFFFFFFE2
:10534000FFFFFFFFFFFFFFFF7DEFCE83828800F8A6
:10535000C4D80CF38AFA82E882B04569C751084282
:10536000083A865A839BA2BC22CD21CDA1C422B487
:10537000C47A063A862945290531C450419000C0B7
:1053800000A800A000A800304A4ABAD6FFFFFFFFDD
:10539000FFFFFFFFFFFF7DEF8E73C318053982A863
:1053A00000F8C3F84DFB4DFBC7F9C3F082D8C3B07A
:1053B00004814561465186498649464145414541FA
:1053C000454105490461829041B000D000C800A861
:1053D00000A800B8415882108210B294BEF7FFFFB7
:1053E000FFFFFFFFBEF7CF7B821004218629864195
:1053F000049940E841F886F9CBFA49FA82F800F8B6
:1054000000F000E841D841D041C041C041C041C096
:1054100041C800D000E000E000D800D000B800A8EB
:1054200041888248821082100000452979CEFFFF12
:10543000FFFFBEF7F39C8210C31845298631C731A0
:10544000307CF3DC86E100F000F841F841F800F828
:1054500000F800F800F800F800F800F800F800F88C
:1054600000F800E800E000E000D800C841A08A9AF7
:105470000C63041182108210410800004D6B7DEF17
:10548000FFFFFBDE08424210452986318631494A3A
:1054900038BEFFFF38D686A900C800E000F000F84B
:1054A00000F800F800F800F800F800F800F800F044
:1054B00000F000E800E000D0C3988A8AB2A4BAC61F
:1054C000F7B5084241088210410800004529F7BDA0
:1054D000FFFF718C410804214529863186310C6318
:1054E0003CE7FFFF79D646B900E042C882A882B007
:1054F00041D882E882F041E841E841E841F041E8E2
:1055000041D804C108924D8B34A5FBC6FBD6BACE58
:105510003CE73084C3184108410800004108CF7BB4
:105520007DEF494A00000421452946318631308407
:10553000FFFFFFF7F7DD09DA83F801F042C0829838
:10554000499AF3B4F3CC71BC8EBB8EBB30BC71BC3A
:10555000F3BCB6BDFBCEBEE77DE73BDFBAD679CE66
:10556000FBDE75AD86314108410800000000494A64
:10557000FBDE042141080421452945298739B294DD
:10558000FFFFBEF734DD0CEB09FA00F001D800D8BC
:105590008BD27DE7FFFFFFFFFFFFFFFFFFFFFFFF56
:1055A000FFFFFFFFBEFF7DEFFBDEFBDEBAD679CE4D
:1055B000BAD678C6C7390000410800000000C739D4
:1055C00079CE00008210C318042105298631B39CCE
:1055D000FFFFFFF775DDC7E9C7F901F801F000E843
:1055E00049E2FBEEFFFFFFFFFFFFFFFFFFFFFFFFB3
:1055F000FFFFFFFFBEF77DEFFBDEFBDEBAD679CE05
:10560000BAD6B9CE08420000000000000000C73939
:1056100038C60000821082100421042145293084FC
:10562000FFFFFFFF38DEC4D000F001F800F800F003
:1056300008D2FBE6FFFFFFFFFFFFFFFFFFFFFFFFBB
:10564000FFFFFFFFBEF77DEFFBDEBAD679CE79CE46
:10565000BAD679CEC7394108000000000000863173
:1056600038C600000000C318CB5A8631C318CB5A85
:105670007DEFFFFF7DEFCFBBC3B041D041D082B8FB
:105680004DB37DE7FFFFFFFFFFFFFFFFFFFFFFFFC2
:10569000FFFFBEF7BEF73DEFFBDEBAD679CE79CE7F
:1056A000FAD6F7BD042186310421000000008631BE
:1056B00038C68631C318CB5A75ADCF7B41088631C9
:1056C000F7BDFFFFFFFFBEEF74B5309C309C72A4A6
:1056D000BBD6FFFFFFFFFFFFFFFFFFFFFFFFFFFF47
:1056E000FFFFBEF77DEF3CE7FBDEBAD679CE79CE81
:1056F0003CE7718C81080C63CF7B821000008A52DA
:1057000038C675AD718CB6B53CE7FBDEC739000015
:10571000CF73FFFFFFFFFFFFFFFFFFFFFFFFFFFF55
:10572000FFFFFFFFFFFFFFFFFFFFFFFFFFFFFFFF89
:10573000BEF77DEF7DEF3BDFFAD679CE79CEFBDE8B
:10574000B9CEC739C420718CBAD6718CCB5AB294F9
:10575000BAD6FFFF7DEF7DEFFFFFFFFFB6B546290D
:10576000051975A5FFFFFFFFFFFFFFFFFFFFFFFF0D
:10577000FFFFFFFFFFFFFFFFFFFFFFFFFFFFFFFF39
:10578000BEF77DEF3CE7FBDEBAD679CEBAD6FCDEBB
:105790004E6342080C63F7BDBEF7FFFFFBDEFBDE86
:1057A000BEF7FFFFFFFFFFFFFFFFFFFFFFFFF49CC0
:1057B00004210521B6A5FFFFFFFFFFFFFFFFFFFF4D
:1057C000FFFFFFFFFFFFFFFFFFFFFFFFBEF7BEF77B
:1057D0007DEF3CE7FBDEBAD679CEFBDEBBD6D173DC
:1057E00083188639349DBDEFFFFFFFFFFFFFFFFFEA
:1057F000FFFFFFFFFFFFFFFFFFFFBEFF35D6EBCC34
:1058000043B340510519F58CBEEFFFFFFFFFFFFFCB
:10581000FFFFFFFFFFFFFFFFBEF7BEF77DEF7DEF4E
:105820003CE7FBDEBADEBAD63CDF3ABE4F638249C4
:1058300040A323B4CC833ABEFFFFFFFFFFFFFFFF6F
:10584000FFFFFFFFFFFFFFFFBFF7B5BD829220F410
:10585000A0FC60E4408284418F6B77AD3DE7FFFFA1
:10586000FFFFFEFFBEF7BEF7BEF77DEF7DEF3CE723
:10587000FBDEFBDE3DE7BBCE369D0B6B416A60C4B1
:1058800020FE60F5008BC76A38C6BEF7FFFFFFFF3A
:10589000FFFFFFFFFFFFFFFF7DEF4B7B80B2A0FC10
:1058A000A0FCE0FCE0FCC0CBC18A45624D6BB39428
:1058B000F7BD3DDFFFF7FFFFBEF77DEF7DEF7DE733
:1058C0003DDFBAC675A58D7B847A40B3E0ECE0FD80
:1058D000E0FD60F520E5A0D40A6BFBDEFFFFFFFFD3
:1058E000FFFFFFFFFFFFFFFF7DEFCC9340EB60FC6E
:1058F000A0FCE0FC20FD60FD20F5A0D4C0BB429BD5
:10590000458B6B9CAE9C718CB394339D34A5F2A4F3
:10591000F0B4CA9B049B40BB20E420FDA0FDA0FD89
:10592000E0FDE0FDE0FD20C4885A38BEFFFFFFFF28
:10593000FFFFFFFFFFFFFFFFFFFF78D646AB40DB17
:1059400020F460FCA0FCE0FC60FDA0FD60FD20F503
:10595000A0DCC0B3C05186290D638F7B0D5BC741AE
:10596000018200C3C0E360FCA0FCE0FCE0FC60F549
:1059700060F520E5809B8662308479CEFFFFFFFFD3
:10598000FFFFFFFFFFFFFFFFFFFFFFFF38C62D9C5C
:10599000059343A382B3C2BBC2BB22B482A342938A
:1059A000C37A85620B637184B6B579CE79C6B5AD1D
:1059B00070944A8B06830493049B439B439B4393BD
:1059C000048308738D73B39479CE7DEFFFFFFFFFDF
:1059D000FFFFFFFFFFFFFFFFFFFFFFFFFFFF3CDFBA
:1059E00038BE75B533A533A5F39CF39CF39CF394B3
:1059F000F39C35A5F8BDFBDEBEF7FFFFFFFFFFFF01
:105A00007EEFBBD6F8BDB6AD75AD34A5339D349DE4
:105A100035A5B7AD79C63CE7BEF7FFFFFFFFFFFF37
:105A2000FFFF010403040402050106020702080245
:105A300009040A0402400000000000A00000000069
:105A400005400000000000C8000000000C400000FD
:105A50000000409C00000000194000000020BCBE77
:105A60000000000034400000BFC91B8E000000048D
:105A7000B5400000504BCFD06607E2CF01000000D8
:105A80006C4100003E8251AADFEEA7340100000005
:105A9000D9420000DCB5A0E23A301F97FFFFFFFFBC
:105AA000B4450000FD25A0C8E9A3C14FFFFFFFFFDB
:105AB000FF3F00000000008000000000FF3F0000EA
:105AC0000000008000000000045B000800000020CF
:105AD0002C0900006C010008D05F00082C09002090
